{
  "contractName": "GameToken",
  "abi": [
    {
      "inputs": [],
      "stateMutability": "nonpayable",
      "type": "constructor"
    },
    {
      "anonymous": false,
      "inputs": [
        {
          "indexed": true,
          "internalType": "address",
          "name": "account",
          "type": "address"
        },
        {
          "indexed": true,
          "internalType": "address",
          "name": "operator",
          "type": "address"
        },
        {
          "indexed": false,
          "internalType": "bool",
          "name": "approved",
          "type": "bool"
        }
      ],
      "name": "ApprovalForAll",
      "type": "event"
    },
    {
      "anonymous": false,
      "inputs": [
        {
          "indexed": true,
          "internalType": "address",
          "name": "operator",
          "type": "address"
        },
        {
          "indexed": true,
          "internalType": "address",
          "name": "from",
          "type": "address"
        },
        {
          "indexed": true,
          "internalType": "address",
          "name": "to",
          "type": "address"
        },
        {
          "indexed": false,
          "internalType": "uint256[]",
          "name": "ids",
          "type": "uint256[]"
        },
        {
          "indexed": false,
          "internalType": "uint256[]",
          "name": "values",
          "type": "uint256[]"
        }
      ],
      "name": "TransferBatch",
      "type": "event"
    },
    {
      "anonymous": false,
      "inputs": [
        {
          "indexed": true,
          "internalType": "address",
          "name": "operator",
          "type": "address"
        },
        {
          "indexed": true,
          "internalType": "address",
          "name": "from",
          "type": "address"
        },
        {
          "indexed": true,
          "internalType": "address",
          "name": "to",
          "type": "address"
        },
        {
          "indexed": false,
          "internalType": "uint256",
          "name": "id",
          "type": "uint256"
        },
        {
          "indexed": false,
          "internalType": "uint256",
          "name": "value",
          "type": "uint256"
        }
      ],
      "name": "TransferSingle",
      "type": "event"
    },
    {
      "anonymous": false,
      "inputs": [
        {
          "indexed": false,
          "internalType": "string",
          "name": "value",
          "type": "string"
        },
        {
          "indexed": true,
          "internalType": "uint256",
          "name": "id",
          "type": "uint256"
        }
      ],
      "name": "URI",
      "type": "event"
    },
    {
      "inputs": [
        {
          "internalType": "address",
          "name": "account",
          "type": "address"
        },
        {
          "internalType": "uint256",
          "name": "id",
          "type": "uint256"
        }
      ],
      "name": "balanceOf",
      "outputs": [
        {
          "internalType": "uint256",
          "name": "",
          "type": "uint256"
        }
      ],
      "stateMutability": "view",
      "type": "function"
    },
    {
      "inputs": [
        {
          "internalType": "address[]",
          "name": "accounts",
          "type": "address[]"
        },
        {
          "internalType": "uint256[]",
          "name": "ids",
          "type": "uint256[]"
        }
      ],
      "name": "balanceOfBatch",
      "outputs": [
        {
          "internalType": "uint256[]",
          "name": "",
          "type": "uint256[]"
        }
      ],
      "stateMutability": "view",
      "type": "function"
    },
    {
      "inputs": [
        {
          "internalType": "address",
          "name": "account",
          "type": "address"
        },
        {
          "internalType": "address",
          "name": "operator",
          "type": "address"
        }
      ],
      "name": "isApprovedForAll",
      "outputs": [
        {
          "internalType": "bool",
          "name": "",
          "type": "bool"
        }
      ],
      "stateMutability": "view",
      "type": "function"
    },
    {
      "inputs": [],
      "name": "name",
      "outputs": [
        {
          "internalType": "string",
          "name": "",
          "type": "string"
        }
      ],
      "stateMutability": "view",
      "type": "function"
    },
    {
      "inputs": [
        {
          "internalType": "address",
          "name": "from",
          "type": "address"
        },
        {
          "internalType": "address",
          "name": "to",
          "type": "address"
        },
        {
          "internalType": "uint256[]",
          "name": "ids",
          "type": "uint256[]"
        },
        {
          "internalType": "uint256[]",
          "name": "amounts",
          "type": "uint256[]"
        },
        {
          "internalType": "bytes",
          "name": "data",
          "type": "bytes"
        }
      ],
      "name": "safeBatchTransferFrom",
      "outputs": [],
      "stateMutability": "nonpayable",
      "type": "function"
    },
    {
      "inputs": [
        {
          "internalType": "address",
          "name": "from",
          "type": "address"
        },
        {
          "internalType": "address",
          "name": "to",
          "type": "address"
        },
        {
          "internalType": "uint256",
          "name": "id",
          "type": "uint256"
        },
        {
          "internalType": "uint256",
          "name": "amount",
          "type": "uint256"
        },
        {
          "internalType": "bytes",
          "name": "data",
          "type": "bytes"
        }
      ],
      "name": "safeTransferFrom",
      "outputs": [],
      "stateMutability": "nonpayable",
      "type": "function"
    },
    {
      "inputs": [
        {
          "internalType": "address",
          "name": "operator",
          "type": "address"
        },
        {
          "internalType": "bool",
          "name": "approved",
          "type": "bool"
        }
      ],
      "name": "setApprovalForAll",
      "outputs": [],
      "stateMutability": "nonpayable",
      "type": "function"
    },
    {
      "inputs": [
        {
          "internalType": "bytes4",
          "name": "interfaceId",
          "type": "bytes4"
        }
      ],
      "name": "supportsInterface",
      "outputs": [
        {
          "internalType": "bool",
          "name": "",
          "type": "bool"
        }
      ],
      "stateMutability": "view",
      "type": "function"
    },
    {
      "inputs": [],
      "name": "symbol",
      "outputs": [
        {
          "internalType": "string",
          "name": "",
          "type": "string"
        }
      ],
      "stateMutability": "view",
      "type": "function"
    },
    {
      "inputs": [
        {
          "internalType": "uint256",
          "name": "",
          "type": "uint256"
        }
      ],
      "name": "uri",
      "outputs": [
        {
          "internalType": "string",
          "name": "",
          "type": "string"
        }
      ],
      "stateMutability": "view",
      "type": "function"
    }
  ],
  "bytecode": "0x60806040523480156200001157600080fd5b50604051806020016040528060008152506200003381620000f760201b60201c565b506040518060400160405280600381526020017f494b410000000000000000000000000000000000000000000000000000000000815250600390816200007a919062000822565b506040518060400160405280600381526020017f494b41000000000000000000000000000000000000000000000000000000000081525060049081620000c1919062000822565b50620000f133600160646040518060800160405280605e8152602001620035ce605e91396200010c60201b60201c565b62000f2e565b806002908162000108919062000822565b5050565b600073ffffffffffffffffffffffffffffffffffffffff168473ffffffffffffffffffffffffffffffffffffffff16036200017e576040517f08c379a0000000000000000000000000000000000000000000000000000000008152600401620001759062000990565b60405180910390fd5b600062000190620002f360201b60201c565b90506000620001a585620002fb60201b60201c565b90506000620001ba85620002fb60201b60201c565b9050620001d3836000898585896200037c60201b60201c565b8460008088815260200190815260200160002060008973ffffffffffffffffffffffffffffffffffffffff1673ffffffffffffffffffffffffffffffffffffffff1681526020019081526020016000206000828254620002349190620009e1565b925050819055508673ffffffffffffffffffffffffffffffffffffffff16600073ffffffffffffffffffffffffffffffffffffffff168473ffffffffffffffffffffffffffffffffffffffff167fc3d58168c5ae7397731d063d5bbf3d657854427343f4c083240f7aacaa2d0f628989604051620002b492919062000a4f565b60405180910390a4620002d3836000898585896200038460201b60201c565b620002ea836000898989896200038c60201b60201c565b50505050505050565b600033905090565b60606000600167ffffffffffffffff8111156200031d576200031c620005b3565b5b6040519080825280602002602001820160405280156200034c5781602001602082028036833780820191505090505b509050828160008151811062000367576200036662000a7c565b5b60200260200101818152505080915050919050565b505050505050565b505050505050565b620003b88473ffffffffffffffffffffffffffffffffffffffff166200058560201b620008811760201c565b156200057d578373ffffffffffffffffffffffffffffffffffffffff1663f23a6e6187878686866040518663ffffffff1660e01b81526004016200040195949392919062000b94565b6020604051808303816000875af19250505080156200044057506040513d601f19601f820116820180604052508101906200043d919062000c64565b60015b620004f1576200044f62000ca3565b806308c379a003620004b257506200046662000cfe565b80620004735750620004b4565b806040517f08c379a0000000000000000000000000000000000000000000000000000000008152600401620004a9919062000dda565b60405180910390fd5b505b6040517f08c379a0000000000000000000000000000000000000000000000000000000008152600401620004e89062000e74565b60405180910390fd5b63f23a6e6160e01b7bffffffffffffffffffffffffffffffffffffffffffffffffffffffff1916817bffffffffffffffffffffffffffffffffffffffffffffffffffffffff1916146200057b576040517f08c379a0000000000000000000000000000000000000000000000000000000008152600401620005729062000f0c565b60405180910390fd5b505b505050505050565b6000808273ffffffffffffffffffffffffffffffffffffffff163b119050919050565b600081519050919050565b7f4e487b7100000000000000000000000000000000000000000000000000000000600052604160045260246000fd5b7f4e487b7100000000000000000000000000000000000000000000000000000000600052602260045260246000fd5b600060028204905060018216806200062a57607f821691505b60208210810362000640576200063f620005e2565b5b50919050565b60008190508160005260206000209050919050565b60006020601f8301049050919050565b600082821b905092915050565b600060088302620006aa7fffffffffffffffffffffffffffffffffffffffffffffffffffffffffffffffff826200066b565b620006b686836200066b565b95508019841693508086168417925050509392505050565b6000819050919050565b6000819050919050565b600062000703620006fd620006f784620006ce565b620006d8565b620006ce565b9050919050565b6000819050919050565b6200071f83620006e2565b620007376200072e826200070a565b84845462000678565b825550505050565b600090565b6200074e6200073f565b6200075b81848462000714565b505050565b5b8181101562000783576200077760008262000744565b60018101905062000761565b5050565b601f821115620007d2576200079c8162000646565b620007a7846200065b565b81016020851015620007b7578190505b620007cf620007c6856200065b565b83018262000760565b50505b505050565b600082821c905092915050565b6000620007f760001984600802620007d7565b1980831691505092915050565b6000620008128383620007e4565b9150826002028217905092915050565b6200082d82620005a8565b67ffffffffffffffff811115620008495762000848620005b3565b5b62000855825462000611565b6200086282828562000787565b600060209050601f8311600181146200089a576000841562000885578287015190505b62000891858262000804565b86555062000901565b601f198416620008aa8662000646565b60005b82811015620008d457848901518255600182019150602085019450602081019050620008ad565b86831015620008f45784890151620008f0601f891682620007e4565b8355505b6001600288020188555050505b505050505050565b600082825260208201905092915050565b7f455243313135353a206d696e7420746f20746865207a65726f2061646472657360008201527f7300000000000000000000000000000000000000000000000000000000000000602082015250565b60006200097860218362000909565b915062000985826200091a565b604082019050919050565b60006020820190508181036000830152620009ab8162000969565b9050919050565b7f4e487b7100000000000000000000000000000000000000000000000000000000600052601160045260246000fd5b6000620009ee82620006ce565b9150620009fb83620006ce565b9250827fffffffffffffffffffffffffffffffffffffffffffffffffffffffffffffffff0382111562000a335762000a32620009b2565b5b828201905092915050565b62000a4981620006ce565b82525050565b600060408201905062000a66600083018562000a3e565b62000a75602083018462000a3e565b9392505050565b7f4e487b7100000000000000000000000000000000000000000000000000000000600052603260045260246000fd5b600073ffffffffffffffffffffffffffffffffffffffff82169050919050565b600062000ad88262000aab565b9050919050565b62000aea8162000acb565b82525050565b600081519050919050565b600082825260208201905092915050565b60005b8381101562000b2c57808201518184015260208101905062000b0f565b8381111562000b3c576000848401525b50505050565b6000601f19601f8301169050919050565b600062000b608262000af0565b62000b6c818562000afb565b935062000b7e81856020860162000b0c565b62000b898162000b42565b840191505092915050565b600060a08201905062000bab600083018862000adf565b62000bba602083018762000adf565b62000bc9604083018662000a3e565b62000bd8606083018562000a3e565b818103608083015262000bec818462000b53565b90509695505050505050565b6000604051905090565b600080fd5b60007fffffffff0000000000000000000000000000000000000000000000000000000082169050919050565b62000c3e8162000c07565b811462000c4a57600080fd5b50565b60008151905062000c5e8162000c33565b92915050565b60006020828403121562000c7d5762000c7c62000c02565b5b600062000c8d8482850162000c4d565b91505092915050565b60008160e01c9050919050565b600060033d111562000cc55760046000803e62000cc260005162000c96565b90505b90565b62000cd38262000b42565b810181811067ffffffffffffffff8211171562000cf55762000cf4620005b3565b5b80604052505050565b600060443d1062000d965762000d1362000bf8565b60043d036004823e80513d602482011167ffffffffffffffff8211171562000d3d57505062000d96565b808201805167ffffffffffffffff81111562000d5d575050505062000d96565b80602083010160043d03850181111562000d7c57505050505062000d96565b62000d8d8260200185018662000cc8565b82955050505050505b90565b600062000da682620005a8565b62000db2818562000909565b935062000dc481856020860162000b0c565b62000dcf8162000b42565b840191505092915050565b6000602082019050818103600083015262000df6818462000d99565b905092915050565b7f455243313135353a207472616e7366657220746f206e6f6e204552433131353560008201527f526563656976657220696d706c656d656e746572000000000000000000000000602082015250565b600062000e5c60348362000909565b915062000e698262000dfe565b604082019050919050565b6000602082019050818103600083015262000e8f8162000e4d565b9050919050565b7f455243313135353a204552433131353552656365697665722072656a6563746560008201527f6420746f6b656e73000000000000000000000000000000000000000000000000602082015250565b600062000ef460288362000909565b915062000f018262000e96565b604082019050919050565b6000602082019050818103600083015262000f278162000ee5565b9050919050565b6126908062000f3e6000396000f3fe608060405234801561001057600080fd5b506004361061009d5760003560e01c80634e1273f4116100665780634e1273f41461016c57806395d89b411461019c578063a22cb465146101ba578063e985e9c5146101d6578063f242432a146102065761009d565b8062fdd58e146100a257806301ffc9a7146100d257806306fdde03146101025780630e89341c146101205780632eb2c2d614610150575b600080fd5b6100bc60048036038101906100b7919061151e565b610222565b6040516100c9919061156d565b60405180910390f35b6100ec60048036038101906100e791906115e0565b6102ea565b6040516100f99190611628565b60405180910390f35b61010a6103cc565b60405161011791906116dc565b60405180910390f35b61013a600480360381019061013591906116fe565b61045a565b60405161014791906116dc565b60405180910390f35b61016a60048036038101906101659190611928565b6104ee565b005b61018660048036038101906101819190611aba565b61058f565b6040516101939190611bf0565b60405180910390f35b6101a46106a8565b6040516101b191906116dc565b60405180910390f35b6101d460048036038101906101cf9190611c3e565b610736565b005b6101f060048036038101906101eb9190611c7e565b61074c565b6040516101fd9190611628565b60405180910390f35b610220600480360381019061021b9190611cbe565b6107e0565b005b60008073ffffffffffffffffffffffffffffffffffffffff168373ffffffffffffffffffffffffffffffffffffffff1603610292576040517f08c379a000000000000000000000000000000000000000000000000000000000815260040161028990611dc7565b60405180910390fd5b60008083815260200190815260200160002060008473ffffffffffffffffffffffffffffffffffffffff1673ffffffffffffffffffffffffffffffffffffffff16815260200190815260200160002054905092915050565b60007fd9b67a26000000000000000000000000000000000000000000000000000000007bffffffffffffffffffffffffffffffffffffffffffffffffffffffff1916827bffffffffffffffffffffffffffffffffffffffffffffffffffffffff191614806103b557507f0e89341c000000000000000000000000000000000000000000000000000000007bffffffffffffffffffffffffffffffffffffffffffffffffffffffff1916827bffffffffffffffffffffffffffffffffffffffffffffffffffffffff1916145b806103c557506103c4826108a4565b5b9050919050565b600380546103d990611e16565b80601f016020809104026020016040519081016040528092919081815260200182805461040590611e16565b80156104525780601f1061042757610100808354040283529160200191610452565b820191906000526020600020905b81548152906001019060200180831161043557829003601f168201915b505050505081565b60606002805461046990611e16565b80601f016020809104026020016040519081016040528092919081815260200182805461049590611e16565b80156104e25780601f106104b7576101008083540402835291602001916104e2565b820191906000526020600020905b8154815290600101906020018083116104c557829003601f168201915b50505050509050919050565b6104f661090e565b73ffffffffffffffffffffffffffffffffffffffff168573ffffffffffffffffffffffffffffffffffffffff16148061053c575061053b8561053661090e565b61074c565b5b61057b576040517f08c379a000000000000000000000000000000000000000000000000000000000815260040161057290611eb9565b60405180910390fd5b6105888585858585610916565b5050505050565b606081518351146105d5576040517f08c379a00000000000000000000000000000000000000000000000000000000081526004016105cc90611f4b565b60405180910390fd5b6000835167ffffffffffffffff8111156105f2576105f1611730565b5b6040519080825280602002602001820160405280156106205781602001602082028036833780820191505090505b50905060005b845181101561069d5761066d85828151811061064557610644611f6b565b5b60200260200101518583815181106106605761065f611f6b565b5b6020026020010151610222565b8282815181106106805761067f611f6b565b5b6020026020010181815250508061069690611fc9565b9050610626565b508091505092915050565b600480546106b590611e16565b80601f01602080910402602001604051908101604052809291908181526020018280546106e190611e16565b801561072e5780601f106107035761010080835404028352916020019161072e565b820191906000526020600020905b81548152906001019060200180831161071157829003601f168201915b505050505081565b61074861074161090e565b8383610c37565b5050565b6000600160008473ffffffffffffffffffffffffffffffffffffffff1673ffffffffffffffffffffffffffffffffffffffff16815260200190815260200160002060008373ffffffffffffffffffffffffffffffffffffffff1673ffffffffffffffffffffffffffffffffffffffff16815260200190815260200160002060009054906101000a900460ff16905092915050565b6107e861090e565b73ffffffffffffffffffffffffffffffffffffffff168573ffffffffffffffffffffffffffffffffffffffff16148061082e575061082d8561082861090e565b61074c565b5b61086d576040517f08c379a000000000000000000000000000000000000000000000000000000000815260040161086490611eb9565b60405180910390fd5b61087a8585858585610da3565b5050505050565b6000808273ffffffffffffffffffffffffffffffffffffffff163b119050919050565b60007f01ffc9a7000000000000000000000000000000000000000000000000000000007bffffffffffffffffffffffffffffffffffffffffffffffffffffffff1916827bffffffffffffffffffffffffffffffffffffffffffffffffffffffff1916149050919050565b600033905090565b815183511461095a576040517f08c379a000000000000000000000000000000000000000000000000000000000815260040161095190612083565b60405180910390fd5b600073ffffffffffffffffffffffffffffffffffffffff168473ffffffffffffffffffffffffffffffffffffffff16036109c9576040517f08c379a00000000000000000000000000000000000000000000000000000000081526004016109c090612115565b60405180910390fd5b60006109d361090e565b90506109e381878787878761103e565b60005b8451811015610b94576000858281518110610a0457610a03611f6b565b5b602002602001015190506000858381518110610a2357610a22611f6b565b5b60200260200101519050600080600084815260200190815260200160002060008b73ffffffffffffffffffffffffffffffffffffffff1673ffffffffffffffffffffffffffffffffffffffff16815260200190815260200160002054905081811015610ac4576040517f08c379a0000000000000000000000000000000000000000000000000000000008152600401610abb906121a7565b60405180910390fd5b81810360008085815260200190815260200160002060008c73ffffffffffffffffffffffffffffffffffffffff1673ffffffffffffffffffffffffffffffffffffffff168152602001908152602001600020819055508160008085815260200190815260200160002060008b73ffffffffffffffffffffffffffffffffffffffff1673ffffffffffffffffffffffffffffffffffffffff1681526020019081526020016000206000828254610b7991906121c7565b9250508190555050505080610b8d90611fc9565b90506109e6565b508473ffffffffffffffffffffffffffffffffffffffff168673ffffffffffffffffffffffffffffffffffffffff168273ffffffffffffffffffffffffffffffffffffffff167f4a39dc06d4c0dbc64b70af90fd698a233a518aa5d07e595d983b8c0526c8f7fb8787604051610c0b92919061221d565b60405180910390a4610c21818787878787611046565b610c2f81878787878761104e565b505050505050565b8173ffffffffffffffffffffffffffffffffffffffff168373ffffffffffffffffffffffffffffffffffffffff1603610ca5576040517f08c379a0000000000000000000000000000000000000000000000000000000008152600401610c9c906122c6565b60405180910390fd5b80600160008573ffffffffffffffffffffffffffffffffffffffff1673ffffffffffffffffffffffffffffffffffffffff16815260200190815260200160002060008473ffffffffffffffffffffffffffffffffffffffff1673ffffffffffffffffffffffffffffffffffffffff16815260200190815260200160002060006101000a81548160ff0219169083151502179055508173ffffffffffffffffffffffffffffffffffffffff168373ffffffffffffffffffffffffffffffffffffffff167f17307eab39ab6107e8899845ad3d59bd9653f200f220920489ca2b5937696c3183604051610d969190611628565b60405180910390a3505050565b600073ffffffffffffffffffffffffffffffffffffffff168473ffffffffffffffffffffffffffffffffffffffff1603610e12576040517f08c379a0000000000000000000000000000000000000000000000000000000008152600401610e0990612115565b60405180910390fd5b6000610e1c61090e565b90506000610e2985611225565b90506000610e3685611225565b9050610e4683898985858961103e565b600080600088815260200190815260200160002060008a73ffffffffffffffffffffffffffffffffffffffff1673ffffffffffffffffffffffffffffffffffffffff16815260200190815260200160002054905085811015610edd576040517f08c379a0000000000000000000000000000000000000000000000000000000008152600401610ed4906121a7565b60405180910390fd5b85810360008089815260200190815260200160002060008b73ffffffffffffffffffffffffffffffffffffffff1673ffffffffffffffffffffffffffffffffffffffff168152602001908152602001600020819055508560008089815260200190815260200160002060008a73ffffffffffffffffffffffffffffffffffffffff1673ffffffffffffffffffffffffffffffffffffffff1681526020019081526020016000206000828254610f9291906121c7565b925050819055508773ffffffffffffffffffffffffffffffffffffffff168973ffffffffffffffffffffffffffffffffffffffff168573ffffffffffffffffffffffffffffffffffffffff167fc3d58168c5ae7397731d063d5bbf3d657854427343f4c083240f7aacaa2d0f628a8a60405161100f9291906122e6565b60405180910390a4611025848a8a86868a611046565b611033848a8a8a8a8a61129f565b505050505050505050565b505050505050565b505050505050565b61106d8473ffffffffffffffffffffffffffffffffffffffff16610881565b1561121d578373ffffffffffffffffffffffffffffffffffffffff1663bc197c8187878686866040518663ffffffff1660e01b81526004016110b3959493929190612373565b6020604051808303816000875af19250505080156110ef57506040513d601f19601f820116820180604052508101906110ec91906123f0565b60015b611194576110fb61242a565b806308c379a003611157575061110f61244c565b8061111a5750611159565b806040517f08c379a000000000000000000000000000000000000000000000000000000000815260040161114e91906116dc565b60405180910390fd5b505b6040517f08c379a000000000000000000000000000000000000000000000000000000000815260040161118b9061254e565b60405180910390fd5b63bc197c8160e01b7bffffffffffffffffffffffffffffffffffffffffffffffffffffffff1916817bffffffffffffffffffffffffffffffffffffffffffffffffffffffff19161461121b576040517f08c379a0000000000000000000000000000000000000000000000000000000008152600401611212906125e0565b60405180910390fd5b505b505050505050565b60606000600167ffffffffffffffff81111561124457611243611730565b5b6040519080825280602002602001820160405280156112725781602001602082028036833780820191505090505b509050828160008151811061128a57611289611f6b565b5b60200260200101818152505080915050919050565b6112be8473ffffffffffffffffffffffffffffffffffffffff16610881565b1561146e578373ffffffffffffffffffffffffffffffffffffffff1663f23a6e6187878686866040518663ffffffff1660e01b8152600401611304959493929190612600565b6020604051808303816000875af192505050801561134057506040513d601f19601f8201168201806040525081019061133d91906123f0565b60015b6113e55761134c61242a565b806308c379a0036113a8575061136061244c565b8061136b57506113aa565b806040517f08c379a000000000000000000000000000000000000000000000000000000000815260040161139f91906116dc565b60405180910390fd5b505b6040517f08c379a00000000000000000000000000000000000000000000000000000000081526004016113dc9061254e565b60405180910390fd5b63f23a6e6160e01b7bffffffffffffffffffffffffffffffffffffffffffffffffffffffff1916817bffffffffffffffffffffffffffffffffffffffffffffffffffffffff19161461146c576040517f08c379a0000000000000000000000000000000000000000000000000000000008152600401611463906125e0565b60405180910390fd5b505b505050505050565b6000604051905090565b600080fd5b600080fd5b600073ffffffffffffffffffffffffffffffffffffffff82169050919050565b60006114b58261148a565b9050919050565b6114c5816114aa565b81146114d057600080fd5b50565b6000813590506114e2816114bc565b92915050565b6000819050919050565b6114fb816114e8565b811461150657600080fd5b50565b600081359050611518816114f2565b92915050565b6000806040838503121561153557611534611480565b5b6000611543858286016114d3565b925050602061155485828601611509565b9150509250929050565b611567816114e8565b82525050565b6000602082019050611582600083018461155e565b92915050565b60007fffffffff0000000000000000000000000000000000000000000000000000000082169050919050565b6115bd81611588565b81146115c857600080fd5b50565b6000813590506115da816115b4565b92915050565b6000602082840312156115f6576115f5611480565b5b6000611604848285016115cb565b91505092915050565b60008115159050919050565b6116228161160d565b82525050565b600060208201905061163d6000830184611619565b92915050565b600081519050919050565b600082825260208201905092915050565b60005b8381101561167d578082015181840152602081019050611662565b8381111561168c576000848401525b50505050565b6000601f19601f8301169050919050565b60006116ae82611643565b6116b8818561164e565b93506116c881856020860161165f565b6116d181611692565b840191505092915050565b600060208201905081810360008301526116f681846116a3565b905092915050565b60006020828403121561171457611713611480565b5b600061172284828501611509565b91505092915050565b600080fd5b7f4e487b7100000000000000000000000000000000000000000000000000000000600052604160045260246000fd5b61176882611692565b810181811067ffffffffffffffff8211171561178757611786611730565b5b80604052505050565b600061179a611476565b90506117a6828261175f565b919050565b600067ffffffffffffffff8211156117c6576117c5611730565b5b602082029050602081019050919050565b600080fd5b60006117ef6117ea846117ab565b611790565b90508083825260208201905060208402830185811115611812576118116117d7565b5b835b8181101561183b57806118278882611509565b845260208401935050602081019050611814565b5050509392505050565b600082601f83011261185a5761185961172b565b5b813561186a8482602086016117dc565b91505092915050565b600080fd5b600067ffffffffffffffff82111561189357611892611730565b5b61189c82611692565b9050602081019050919050565b82818337600083830152505050565b60006118cb6118c684611878565b611790565b9050828152602081018484840111156118e7576118e6611873565b5b6118f28482856118a9565b509392505050565b600082601f83011261190f5761190e61172b565b5b813561191f8482602086016118b8565b91505092915050565b600080600080600060a0868803121561194457611943611480565b5b6000611952888289016114d3565b9550506020611963888289016114d3565b945050604086013567ffffffffffffffff81111561198457611983611485565b5b61199088828901611845565b935050606086013567ffffffffffffffff8111156119b1576119b0611485565b5b6119bd88828901611845565b925050608086013567ffffffffffffffff8111156119de576119dd611485565b5b6119ea888289016118fa565b9150509295509295909350565b600067ffffffffffffffff821115611a1257611a11611730565b5b602082029050602081019050919050565b6000611a36611a31846119f7565b611790565b90508083825260208201905060208402830185811115611a5957611a586117d7565b5b835b81811015611a825780611a6e88826114d3565b845260208401935050602081019050611a5b565b5050509392505050565b600082601f830112611aa157611aa061172b565b5b8135611ab1848260208601611a23565b91505092915050565b60008060408385031215611ad157611ad0611480565b5b600083013567ffffffffffffffff811115611aef57611aee611485565b5b611afb85828601611a8c565b925050602083013567ffffffffffffffff811115611b1c57611b1b611485565b5b611b2885828601611845565b9150509250929050565b600081519050919050565b600082825260208201905092915050565b6000819050602082019050919050565b611b67816114e8565b82525050565b6000611b798383611b5e565b60208301905092915050565b6000602082019050919050565b6000611b9d82611b32565b611ba78185611b3d565b9350611bb283611b4e565b8060005b83811015611be3578151611bca8882611b6d565b9750611bd583611b85565b925050600181019050611bb6565b5085935050505092915050565b60006020820190508181036000830152611c0a8184611b92565b905092915050565b611c1b8161160d565b8114611c2657600080fd5b50565b600081359050611c3881611c12565b92915050565b60008060408385031215611c5557611c54611480565b5b6000611c63858286016114d3565b9250506020611c7485828601611c29565b9150509250929050565b60008060408385031215611c9557611c94611480565b5b6000611ca3858286016114d3565b9250506020611cb4858286016114d3565b9150509250929050565b600080600080600060a08688031215611cda57611cd9611480565b5b6000611ce8888289016114d3565b9550506020611cf9888289016114d3565b9450506040611d0a88828901611509565b9350506060611d1b88828901611509565b925050608086013567ffffffffffffffff811115611d3c57611d3b611485565b5b611d48888289016118fa565b9150509295509295909350565b7f455243313135353a2061646472657373207a65726f206973206e6f742061207660008201527f616c6964206f776e657200000000000000000000000000000000000000000000602082015250565b6000611db1602a8361164e565b9150611dbc82611d55565b604082019050919050565b60006020820190508181036000830152611de081611da4565b9050919050565b7f4e487b7100000000000000000000000000000000000000000000000000000000600052602260045260246000fd5b60006002820490506001821680611e2e57607f821691505b602082108103611e4157611e40611de7565b5b50919050565b7f455243313135353a2063616c6c6572206973206e6f7420746f6b656e206f776e60008201527f6572206e6f7220617070726f7665640000000000000000000000000000000000602082015250565b6000611ea3602f8361164e565b9150611eae82611e47565b604082019050919050565b60006020820190508181036000830152611ed281611e96565b9050919050565b7f455243313135353a206163636f756e747320616e6420696473206c656e67746860008201527f206d69736d617463680000000000000000000000000000000000000000000000602082015250565b6000611f3560298361164e565b9150611f4082611ed9565b604082019050919050565b60006020820190508181036000830152611f6481611f28565b9050919050565b7f4e487b7100000000000000000000000000000000000000000000000000000000600052603260045260246000fd5b7f4e487b7100000000000000000000000000000000000000000000000000000000600052601160045260246000fd5b6000611fd4826114e8565b91507fffffffffffffffffffffffffffffffffffffffffffffffffffffffffffffffff820361200657612005611f9a565b5b600182019050919050565b7f455243313135353a2069647320616e6420616d6f756e7473206c656e6774682060008201527f6d69736d61746368000000000000000000000000000000000000000000000000602082015250565b600061206d60288361164e565b915061207882612011565b604082019050919050565b6000602082019050818103600083015261209c81612060565b9050919050565b7f455243313135353a207472616e7366657220746f20746865207a65726f20616460008201527f6472657373000000000000000000000000000000000000000000000000000000602082015250565b60006120ff60258361164e565b915061210a826120a3565b604082019050919050565b6000602082019050818103600083015261212e816120f2565b9050919050565b7f455243313135353a20696e73756666696369656e742062616c616e636520666f60008201527f72207472616e7366657200000000000000000000000000000000000000000000602082015250565b6000612191602a8361164e565b915061219c82612135565b604082019050919050565b600060208201905081810360008301526121c081612184565b9050919050565b60006121d2826114e8565b91506121dd836114e8565b9250827fffffffffffffffffffffffffffffffffffffffffffffffffffffffffffffffff0382111561221257612211611f9a565b5b828201905092915050565b600060408201905081810360008301526122378185611b92565b9050818103602083015261224b8184611b92565b90509392505050565b7f455243313135353a2073657474696e6720617070726f76616c2073746174757360008201527f20666f722073656c660000000000000000000000000000000000000000000000602082015250565b60006122b060298361164e565b91506122bb82612254565b604082019050919050565b600060208201905081810360008301526122df816122a3565b9050919050565b60006040820190506122fb600083018561155e565b612308602083018461155e565b9392505050565b612318816114aa565b82525050565b600081519050919050565b600082825260208201905092915050565b60006123458261231e565b61234f8185612329565b935061235f81856020860161165f565b61236881611692565b840191505092915050565b600060a082019050612388600083018861230f565b612395602083018761230f565b81810360408301526123a78186611b92565b905081810360608301526123bb8185611b92565b905081810360808301526123cf818461233a565b90509695505050505050565b6000815190506123ea816115b4565b92915050565b60006020828403121561240657612405611480565b5b6000612414848285016123db565b91505092915050565b60008160e01c9050919050565b600060033d11156124495760046000803e61244660005161241d565b90505b90565b600060443d106124d95761245e611476565b60043d036004823e80513d602482011167ffffffffffffffff821117156124865750506124d9565b808201805167ffffffffffffffff8111156124a457505050506124d9565b80602083010160043d0385018111156124c15750505050506124d9565b6124d08260200185018661175f565b82955050505050505b90565b7f455243313135353a207472616e7366657220746f206e6f6e204552433131353560008201527f526563656976657220696d706c656d656e746572000000000000000000000000602082015250565b600061253860348361164e565b9150612543826124dc565b604082019050919050565b600060208201905081810360008301526125678161252b565b9050919050565b7f455243313135353a204552433131353552656365697665722072656a6563746560008201527f6420746f6b656e73000000000000000000000000000000000000000000000000602082015250565b60006125ca60288361164e565b91506125d58261256e565b604082019050919050565b600060208201905081810360008301526125f9816125bd565b9050919050565b600060a082019050612615600083018861230f565b612622602083018761230f565b61262f604083018661155e565b61263c606083018561155e565b818103608083015261264e818461233a565b9050969550505050505056fea2646970667358221220cba5598a58c9134e6dd793b69a75f00820d064abfc2e554afcc8673e3c300b6f64736f6c634300080f003368747470733a2f2f697066732e696f2f697066732f6261667972656964636b33773274786d7272633764687062733536706a676f3579346368726f6b6a6732346b3664677a686d746a716b666d7069612f6d657461646174612e6a736f6e",
  "immutableReferences": {},
  "source": "// SPDX-License-Identifier: MIT\r\n\r\npragma solidity ^0.8.15;\r\n\r\nimport \"@openzeppelin/contracts/token/ERC1155/ERC1155.sol\";\r\n\r\ncontract GameToken is ERC1155 {\r\n    \r\n    string public name;\r\n    string public symbol;\r\n\r\n    constructor() ERC1155(\"\") {\r\n        name =\"IKA\";\r\n        symbol = \"IKA\";\r\n        _mint(msg.sender, 1, 100, \"https://ipfs.io/ipfs/bafyreidck3w2txmrrc7dhpbs56pjgo5y4chrokjg24k6dgzhmtjqkfmpia/metadata.json\");\r\n    }\r\n}",
  "sourcePath": "C:\\UFORIKA_GameToken\\contracts\\GameToken.sol",
  "compiler": {
    "name": "solc",
    "version": "0.8.15+commit.e14f2714.Emscripten.clang"
  },
  "schemaVersion": "3.4.8",
  "updatedAt": "2022-10-04T16:52:48.336Z",
  "devdoc": {
    "kind": "dev",
    "methods": {
      "balanceOf(address,uint256)": {
        "details": "See {IERC1155-balanceOf}. Requirements: - `account` cannot be the zero address."
      },
      "balanceOfBatch(address[],uint256[])": {
        "details": "See {IERC1155-balanceOfBatch}. Requirements: - `accounts` and `ids` must have the same length."
      },
      "isApprovedForAll(address,address)": {
        "details": "See {IERC1155-isApprovedForAll}."
      },
      "safeBatchTransferFrom(address,address,uint256[],uint256[],bytes)": {
        "details": "See {IERC1155-safeBatchTransferFrom}."
      },
      "safeTransferFrom(address,address,uint256,uint256,bytes)": {
        "details": "See {IERC1155-safeTransferFrom}."
      },
      "setApprovalForAll(address,bool)": {
        "details": "See {IERC1155-setApprovalForAll}."
      },
      "supportsInterface(bytes4)": {
        "details": "See {IERC165-supportsInterface}."
      },
      "uri(uint256)": {
        "details": "See {IERC1155MetadataURI-uri}. This implementation returns the same URI for *all* token types. It relies on the token type ID substitution mechanism https://eips.ethereum.org/EIPS/eip-1155#metadata[defined in the EIP]. Clients calling this function must replace the `\\{id\\}` substring with the actual token type ID."
      }
    },
    "version": 1
  },
  "userdoc": {
    "kind": "user",
    "methods": {},
    "version": 1
  }
}